{
  "abi": [
    {
      "inputs": [],
      "stateMutability": "nonpayable",
      "type": "constructor"
    },
    {
      "inputs": [],
      "name": "EventIsOver",
      "type": "error"
    },
    {
      "anonymous": false,
      "inputs": [
        {
          "indexed": true,
          "internalType": "address",
          "name": "owner",
          "type": "address"
        },
        {
          "indexed": true,
          "internalType": "address",
          "name": "approved",
          "type": "address"
        },
        {
          "indexed": true,
          "internalType": "uint256",
          "name": "tokenId",
          "type": "uint256"
        }
      ],
      "name": "Approval",
      "type": "event"
    },
    {
      "anonymous": false,
      "inputs": [
        {
          "indexed": true,
          "internalType": "address",
          "name": "owner",
          "type": "address"
        },
        {
          "indexed": true,
          "internalType": "address",
          "name": "operator",
          "type": "address"
        },
        {
          "indexed": false,
          "internalType": "bool",
          "name": "approved",
          "type": "bool"
        }
      ],
      "name": "ApprovalForAll",
      "type": "event"
    },
    {
      "anonymous": false,
      "inputs": [
        {
          "indexed": true,
          "internalType": "address",
          "name": "from",
          "type": "address"
        },
        {
          "indexed": true,
          "internalType": "address",
          "name": "to",
          "type": "address"
        },
        {
          "indexed": true,
          "internalType": "uint256",
          "name": "tokenId",
          "type": "uint256"
        }
      ],
      "name": "Transfer",
      "type": "event"
    },
    {
      "inputs": [
        {
          "internalType": "address",
          "name": "to",
          "type": "address"
        },
        {
          "internalType": "uint256",
          "name": "tokenId",
          "type": "uint256"
        }
      ],
      "name": "approve",
      "outputs": [],
      "stateMutability": "nonpayable",
      "type": "function"
    },
    {
      "inputs": [
        {
          "internalType": "address",
          "name": "owner",
          "type": "address"
        }
      ],
      "name": "balanceOf",
      "outputs": [
        {
          "internalType": "uint256",
          "name": "",
          "type": "uint256"
        }
      ],
      "stateMutability": "view",
      "type": "function"
    },
    {
      "inputs": [],
      "name": "eventEndsTS",
      "outputs": [
        {
          "internalType": "uint256",
          "name": "",
          "type": "uint256"
        }
      ],
      "stateMutability": "view",
      "type": "function"
    },
    {
      "inputs": [],
      "name": "eventStartsTS",
      "outputs": [
        {
          "internalType": "uint256",
          "name": "",
          "type": "uint256"
        }
      ],
      "stateMutability": "view",
      "type": "function"
    },
    {
      "inputs": [
        {
          "internalType": "uint256",
          "name": "tokenId",
          "type": "uint256"
        }
      ],
      "name": "getApproved",
      "outputs": [
        {
          "internalType": "address",
          "name": "",
          "type": "address"
        }
      ],
      "stateMutability": "view",
      "type": "function"
    },
    {
      "inputs": [
        {
          "internalType": "address",
          "name": "owner",
          "type": "address"
        },
        {
          "internalType": "address",
          "name": "operator",
          "type": "address"
        }
      ],
      "name": "isApprovedForAll",
      "outputs": [
        {
          "internalType": "bool",
          "name": "",
          "type": "bool"
        }
      ],
      "stateMutability": "view",
      "type": "function"
    },
    {
      "inputs": [
        {
          "internalType": "address",
          "name": "to",
          "type": "address"
        }
      ],
      "name": "mint",
      "outputs": [],
      "stateMutability": "nonpayable",
      "type": "function"
    },
    {
      "inputs": [],
      "name": "name",
      "outputs": [
        {
          "internalType": "string",
          "name": "",
          "type": "string"
        }
      ],
      "stateMutability": "view",
      "type": "function"
    },
    {
      "inputs": [
        {
          "internalType": "uint256",
          "name": "tokenId",
          "type": "uint256"
        }
      ],
      "name": "ownerOf",
      "outputs": [
        {
          "internalType": "address",
          "name": "",
          "type": "address"
        }
      ],
      "stateMutability": "view",
      "type": "function"
    },
    {
      "inputs": [
        {
          "internalType": "address",
          "name": "from",
          "type": "address"
        },
        {
          "internalType": "address",
          "name": "to",
          "type": "address"
        },
        {
          "internalType": "uint256",
          "name": "tokenId",
          "type": "uint256"
        }
      ],
      "name": "safeTransferFrom",
      "outputs": [],
      "stateMutability": "nonpayable",
      "type": "function"
    },
    {
      "inputs": [
        {
          "internalType": "address",
          "name": "from",
          "type": "address"
        },
        {
          "internalType": "address",
          "name": "to",
          "type": "address"
        },
        {
          "internalType": "uint256",
          "name": "tokenId",
          "type": "uint256"
        },
        {
          "internalType": "bytes",
          "name": "data",
          "type": "bytes"
        }
      ],
      "name": "safeTransferFrom",
      "outputs": [],
      "stateMutability": "nonpayable",
      "type": "function"
    },
    {
      "inputs": [
        {
          "internalType": "address",
          "name": "operator",
          "type": "address"
        },
        {
          "internalType": "bool",
          "name": "approved",
          "type": "bool"
        }
      ],
      "name": "setApprovalForAll",
      "outputs": [],
      "stateMutability": "nonpayable",
      "type": "function"
    },
    {
      "inputs": [
        {
          "internalType": "bytes4",
          "name": "interfaceId",
          "type": "bytes4"
        }
      ],
      "name": "supportsInterface",
      "outputs": [
        {
          "internalType": "bool",
          "name": "",
          "type": "bool"
        }
      ],
      "stateMutability": "view",
      "type": "function"
    },
    {
      "inputs": [],
      "name": "symbol",
      "outputs": [
        {
          "internalType": "string",
          "name": "",
          "type": "string"
        }
      ],
      "stateMutability": "view",
      "type": "function"
    },
    {
      "inputs": [
        {
          "internalType": "uint256",
          "name": "tokenId",
          "type": "uint256"
        }
      ],
      "name": "tokenURI",
      "outputs": [
        {
          "internalType": "string",
          "name": "",
          "type": "string"
        }
      ],
      "stateMutability": "view",
      "type": "function"
    },
    {
      "inputs": [
        {
          "internalType": "address",
          "name": "from",
          "type": "address"
        },
        {
          "internalType": "address",
          "name": "to",
          "type": "address"
        },
        {
          "internalType": "uint256",
          "name": "tokenId",
          "type": "uint256"
        }
      ],
      "name": "transferFrom",
      "outputs": [],
      "stateMutability": "nonpayable",
      "type": "function"
    }
  ],
  "bytecode": {
    "object": "0x60c06040523480156200001157600080fd5b506040518060400160405280601581526020017f436f73746152696361576f726b73686f703230323200000000000000000000008152506040518060400160405280600381526020016243525760e81b81525081600090816200007591906200014a565b5060016200008482826200014a565b50504260a08190526200009c91506201518062000216565b6080526200023e565b634e487b7160e01b600052604160045260246000fd5b600181811c90821680620000d057607f821691505b602082108103620000f157634e487b7160e01b600052602260045260246000fd5b50919050565b601f8211156200014557600081815260208120601f850160051c81016020861015620001205750805b601f850160051c820191505b8181101562000141578281556001016200012c565b5050505b505050565b81516001600160401b03811115620001665762000166620000a5565b6200017e81620001778454620000bb565b84620000f7565b602080601f831160018114620001b657600084156200019d5750858301515b600019600386901b1c1916600185901b17855562000141565b600085815260208120601f198616915b82811015620001e757888601518255948401946001909101908401620001c6565b5085821015620002065787850151600019600388901b60f8161c191681555b5050505050600190811b01905550565b808201808211156200023857634e487b7160e01b600052601160045260246000fd5b92915050565b60805160a0516114876200026b600039600061023501526000818161026f015261056401526114876000f3fe608060405234801561001057600080fd5b50600436106101005760003560e01c806370a0823111610097578063c87b56dd11610066578063c87b56dd1461021d578063e60197be14610230578063e985e9c514610257578063fab837bb1461026a57600080fd5b806370a08231146101ce57806395d89b41146101ef578063a22cb465146101f7578063b88d4fde1461020a57600080fd5b806323b872dd116100d357806323b872dd1461018257806342842e0e146101955780636352211e146101a85780636a627842146101bb57600080fd5b806301ffc9a71461010557806306fdde031461012d578063081812fc14610142578063095ea7b31461016d575b600080fd5b610118610113366004610fd7565b610291565b60405190151581526020015b60405180910390f35b6101356102e3565b6040516101249190611044565b610155610150366004611057565b610375565b6040516001600160a01b039091168152602001610124565b61018061017b36600461108c565b61039c565b005b6101806101903660046110b6565b6104b6565b6101806101a33660046110b6565b6104e7565b6101556101b6366004611057565b610502565b6101806101c93660046110f2565b610562565b6101e16101dc3660046110f2565b6105cc565b604051908152602001610124565b610135610652565b61018061020536600461110d565b610661565b61018061021836600461115f565b61066c565b61013561022b366004611057565b6106a4565b6101e17f000000000000000000000000000000000000000000000000000000000000000081565b61011861026536600461123b565b610718565b6101e17f000000000000000000000000000000000000000000000000000000000000000081565b60006001600160e01b031982166380ac58cd60e01b14806102c257506001600160e01b03198216635b5e139f60e01b145b806102dd57506301ffc9a760e01b6001600160e01b03198316145b92915050565b6060600080546102f29061126e565b80601f016020809104026020016040519081016040528092919081815260200182805461031e9061126e565b801561036b5780601f106103405761010080835404028352916020019161036b565b820191906000526020600020905b81548152906001019060200180831161034e57829003601f168201915b5050505050905090565b600061038082610746565b506000908152600460205260409020546001600160a01b031690565b60006103a782610502565b9050806001600160a01b0316836001600160a01b0316036104195760405162461bcd60e51b815260206004820152602160248201527f4552433732313a20617070726f76616c20746f2063757272656e74206f776e656044820152603960f91b60648201526084015b60405180910390fd5b336001600160a01b038216148061043557506104358133610718565b6104a75760405162461bcd60e51b815260206004820152603d60248201527f4552433732313a20617070726f76652063616c6c6572206973206e6f7420746f60448201527f6b656e206f776e6572206f7220617070726f76656420666f7220616c6c0000006064820152608401610410565b6104b183836107a8565b505050565b6104c03382610816565b6104dc5760405162461bcd60e51b8152600401610410906112a8565b6104b1838383610875565b6104b18383836040518060200160405280600081525061066c565b6000818152600260205260408120546001600160a01b0316806102dd5760405162461bcd60e51b8152602060048201526018602482015277115490cdcc8c4e881a5b9d985b1a59081d1bdad95b88125160421b6044820152606401610410565b7f00000000000000000000000000000000000000000000000000000000000000004211156105a357604051631059430f60e01b815260040160405180910390fd5b60006105ae60065490565b90506105be600680546001019055565b6105c882826109e6565b5050565b60006001600160a01b0382166106365760405162461bcd60e51b815260206004820152602960248201527f4552433732313a2061646472657373207a65726f206973206e6f7420612076616044820152683634b21037bbb732b960b91b6064820152608401610410565b506001600160a01b031660009081526003602052604090205490565b6060600180546102f29061126e565b6105c8338383610a00565b6106763383610816565b6106925760405162461bcd60e51b8152600401610410906112a8565b61069e84848484610ace565b50505050565b60606106af82610746565b60006106c660408051602081019091526000815290565b905060008151116106e65760405180602001604052806000815250610711565b806106f084610b01565b6040516020016107019291906112f5565b6040516020818303038152906040525b9392505050565b6001600160a01b03918216600090815260056020908152604080832093909416825291909152205460ff1690565b6000818152600260205260409020546001600160a01b03166107a55760405162461bcd60e51b8152602060048201526018602482015277115490cdcc8c4e881a5b9d985b1a59081d1bdad95b88125160421b6044820152606401610410565b50565b600081815260046020526040902080546001600160a01b0319166001600160a01b03841690811790915581906107dd82610502565b6001600160a01b03167f8c5be1e5ebec7d5bd14f71427d1e84f3dd0314c0f7b2291e5b200ac8c7c3b92560405160405180910390a45050565b60008061082283610502565b9050806001600160a01b0316846001600160a01b0316148061084957506108498185610718565b8061086d5750836001600160a01b031661086284610375565b6001600160a01b0316145b949350505050565b826001600160a01b031661088882610502565b6001600160a01b0316146108ae5760405162461bcd60e51b815260040161041090611324565b6001600160a01b0382166109105760405162461bcd60e51b8152602060048201526024808201527f4552433732313a207472616e7366657220746f20746865207a65726f206164646044820152637265737360e01b6064820152608401610410565b61091d8383836001610b94565b826001600160a01b031661093082610502565b6001600160a01b0316146109565760405162461bcd60e51b815260040161041090611324565b600081815260046020908152604080832080546001600160a01b03199081169091556001600160a01b0387811680865260038552838620805460001901905590871680865283862080546001019055868652600290945282852080549092168417909155905184937fddf252ad1be2c89b69c2b068fc378daa952ba7f163c4a11628f55a4df523b3ef91a4505050565b6105c8828260405180602001604052806000815250610c1c565b816001600160a01b0316836001600160a01b031603610a615760405162461bcd60e51b815260206004820152601960248201527f4552433732313a20617070726f766520746f2063616c6c6572000000000000006044820152606401610410565b6001600160a01b03838116600081815260056020908152604080832094871680845294825291829020805460ff191686151590811790915591519182527f17307eab39ab6107e8899845ad3d59bd9653f200f220920489ca2b5937696c31910160405180910390a3505050565b610ad9848484610875565b610ae584848484610c4f565b61069e5760405162461bcd60e51b815260040161041090611369565b60606000610b0e83610d50565b600101905060008167ffffffffffffffff811115610b2e57610b2e611149565b6040519080825280601f01601f191660200182016040528015610b58576020820181803683370190505b5090508181016020015b600019016f181899199a1a9b1b9c1cb0b131b232b360811b600a86061a8153600a8504945084610b6257509392505050565b600181111561069e576001600160a01b03841615610bda576001600160a01b03841660009081526003602052604081208054839290610bd49084906113d1565b90915550505b6001600160a01b0383161561069e576001600160a01b03831660009081526003602052604081208054839290610c119084906113e4565b909155505050505050565b610c268383610e28565b610c336000848484610c4f565b6104b15760405162461bcd60e51b815260040161041090611369565b60006001600160a01b0384163b15610d4557604051630a85bd0160e11b81526001600160a01b0385169063150b7a0290610c939033908990889088906004016113f7565b6020604051808303816000875af1925050508015610cce575060408051601f3d908101601f19168201909252610ccb91810190611434565b60015b610d2b573d808015610cfc576040519150601f19603f3d011682016040523d82523d6000602084013e610d01565b606091505b508051600003610d235760405162461bcd60e51b815260040161041090611369565b805181602001fd5b6001600160e01b031916630a85bd0160e11b14905061086d565b506001949350505050565b60008072184f03e93ff9f4daa797ed6e38ed64bf6a1f0160401b8310610d8f5772184f03e93ff9f4daa797ed6e38ed64bf6a1f0160401b830492506040015b6d04ee2d6d415b85acef81000000008310610dbb576d04ee2d6d415b85acef8100000000830492506020015b662386f26fc100008310610dd957662386f26fc10000830492506010015b6305f5e1008310610df1576305f5e100830492506008015b6127108310610e0557612710830492506004015b60648310610e17576064830492506002015b600a83106102dd5760010192915050565b6001600160a01b038216610e7e5760405162461bcd60e51b815260206004820181905260248201527f4552433732313a206d696e7420746f20746865207a65726f20616464726573736044820152606401610410565b6000818152600260205260409020546001600160a01b031615610ee35760405162461bcd60e51b815260206004820152601c60248201527f4552433732313a20746f6b656e20616c7265616479206d696e746564000000006044820152606401610410565b610ef1600083836001610b94565b6000818152600260205260409020546001600160a01b031615610f565760405162461bcd60e51b815260206004820152601c60248201527f4552433732313a20746f6b656e20616c7265616479206d696e746564000000006044820152606401610410565b6001600160a01b038216600081815260036020908152604080832080546001019055848352600290915280822080546001600160a01b0319168417905551839291907fddf252ad1be2c89b69c2b068fc378daa952ba7f163c4a11628f55a4df523b3ef908290a45050565b6001600160e01b0319811681146107a557600080fd5b600060208284031215610fe957600080fd5b813561071181610fc1565b60005b8381101561100f578181015183820152602001610ff7565b50506000910152565b60008151808452611030816020860160208601610ff4565b601f01601f19169290920160200192915050565b6020815260006107116020830184611018565b60006020828403121561106957600080fd5b5035919050565b80356001600160a01b038116811461108757600080fd5b919050565b6000806040838503121561109f57600080fd5b6110a883611070565b946020939093013593505050565b6000806000606084860312156110cb57600080fd5b6110d484611070565b92506110e260208501611070565b9150604084013590509250925092565b60006020828403121561110457600080fd5b61071182611070565b6000806040838503121561112057600080fd5b61112983611070565b91506020830135801515811461113e57600080fd5b809150509250929050565b634e487b7160e01b600052604160045260246000fd5b6000806000806080858703121561117557600080fd5b61117e85611070565b935061118c60208601611070565b925060408501359150606085013567ffffffffffffffff808211156111b057600080fd5b818701915087601f8301126111c457600080fd5b8135818111156111d6576111d6611149565b604051601f8201601f19908116603f011681019083821181831017156111fe576111fe611149565b816040528281528a602084870101111561121757600080fd5b82602086016020830137600060208483010152809550505050505092959194509250565b6000806040838503121561124e57600080fd5b61125783611070565b915061126560208401611070565b90509250929050565b600181811c9082168061128257607f821691505b6020821081036112a257634e487b7160e01b600052602260045260246000fd5b50919050565b6020808252602d908201527f4552433732313a2063616c6c6572206973206e6f7420746f6b656e206f776e6560408201526c1c881bdc88185c1c1c9bdd9959609a1b606082015260800190565b60008351611307818460208801610ff4565b83519083019061131b818360208801610ff4565b01949350505050565b60208082526025908201527f4552433732313a207472616e736665722066726f6d20696e636f72726563742060408201526437bbb732b960d91b606082015260800190565b60208082526032908201527f4552433732313a207472616e7366657220746f206e6f6e20455243373231526560408201527131b2b4bb32b91034b6b83632b6b2b73a32b960711b606082015260800190565b634e487b7160e01b600052601160045260246000fd5b818103818111156102dd576102dd6113bb565b808201808211156102dd576102dd6113bb565b6001600160a01b038581168252841660208201526040810183905260806060820181905260009061142a90830184611018565b9695505050505050565b60006020828403121561144657600080fd5b815161071181610fc156fea26469706673582212201ffe5c31f284260bd0a5d7a7427c4d91f9e4f51c7ffebe2031253c4dbea2420664736f6c63430008100033",
    "linkReferences": {}
  },
  "methodIdentifiers": {
    "approve(address,uint256)": "095ea7b3",
    "balanceOf(address)": "70a08231",
    "eventEndsTS()": "fab837bb",
    "eventStartsTS()": "e60197be",
    "getApproved(uint256)": "081812fc",
    "isApprovedForAll(address,address)": "e985e9c5",
    "mint(address)": "6a627842",
    "name()": "06fdde03",
    "ownerOf(uint256)": "6352211e",
    "safeTransferFrom(address,address,uint256)": "42842e0e",
    "safeTransferFrom(address,address,uint256,bytes)": "b88d4fde",
    "setApprovalForAll(address,bool)": "a22cb465",
    "supportsInterface(bytes4)": "01ffc9a7",
    "symbol()": "95d89b41",
    "tokenURI(uint256)": "c87b56dd",
    "transferFrom(address,address,uint256)": "23b872dd"
  },
  "id": 25
}