{
  "abi": [
    {
      "inputs": [],
      "stateMutability": "nonpayable",
      "type": "constructor"
    },
    {
      "inputs": [],
      "name": "EventIsOver",
      "type": "error"
    },
    {
      "anonymous": false,
      "inputs": [
        {
          "indexed": true,
          "internalType": "address",
          "name": "owner",
          "type": "address"
        },
        {
          "indexed": true,
          "internalType": "address",
          "name": "approved",
          "type": "address"
        },
        {
          "indexed": true,
          "internalType": "uint256",
          "name": "tokenId",
          "type": "uint256"
        }
      ],
      "name": "Approval",
      "type": "event"
    },
    {
      "anonymous": false,
      "inputs": [
        {
          "indexed": true,
          "internalType": "address",
          "name": "owner",
          "type": "address"
        },
        {
          "indexed": true,
          "internalType": "address",
          "name": "operator",
          "type": "address"
        },
        {
          "indexed": false,
          "internalType": "bool",
          "name": "approved",
          "type": "bool"
        }
      ],
      "name": "ApprovalForAll",
      "type": "event"
    },
    {
      "anonymous": false,
      "inputs": [
        {
          "indexed": true,
          "internalType": "address",
          "name": "previousOwner",
          "type": "address"
        },
        {
          "indexed": true,
          "internalType": "address",
          "name": "newOwner",
          "type": "address"
        }
      ],
      "name": "OwnershipTransferred",
      "type": "event"
    },
    {
      "anonymous": false,
      "inputs": [
        {
          "indexed": true,
          "internalType": "address",
          "name": "from",
          "type": "address"
        },
        {
          "indexed": true,
          "internalType": "address",
          "name": "to",
          "type": "address"
        },
        {
          "indexed": true,
          "internalType": "uint256",
          "name": "tokenId",
          "type": "uint256"
        }
      ],
      "name": "Transfer",
      "type": "event"
    },
    {
      "inputs": [
        {
          "internalType": "address",
          "name": "to",
          "type": "address"
        },
        {
          "internalType": "uint256",
          "name": "tokenId",
          "type": "uint256"
        }
      ],
      "name": "approve",
      "outputs": [],
      "stateMutability": "nonpayable",
      "type": "function"
    },
    {
      "inputs": [
        {
          "internalType": "address",
          "name": "owner",
          "type": "address"
        }
      ],
      "name": "balanceOf",
      "outputs": [
        {
          "internalType": "uint256",
          "name": "",
          "type": "uint256"
        }
      ],
      "stateMutability": "view",
      "type": "function"
    },
    {
      "inputs": [],
      "name": "eventEndsTS",
      "outputs": [
        {
          "internalType": "uint256",
          "name": "",
          "type": "uint256"
        }
      ],
      "stateMutability": "view",
      "type": "function"
    },
    {
      "inputs": [],
      "name": "eventStartsTS",
      "outputs": [
        {
          "internalType": "uint256",
          "name": "",
          "type": "uint256"
        }
      ],
      "stateMutability": "view",
      "type": "function"
    },
    {
      "inputs": [
        {
          "internalType": "uint256",
          "name": "tokenId",
          "type": "uint256"
        }
      ],
      "name": "getApproved",
      "outputs": [
        {
          "internalType": "address",
          "name": "",
          "type": "address"
        }
      ],
      "stateMutability": "view",
      "type": "function"
    },
    {
      "inputs": [
        {
          "internalType": "address",
          "name": "owner",
          "type": "address"
        },
        {
          "internalType": "address",
          "name": "operator",
          "type": "address"
        }
      ],
      "name": "isApprovedForAll",
      "outputs": [
        {
          "internalType": "bool",
          "name": "",
          "type": "bool"
        }
      ],
      "stateMutability": "view",
      "type": "function"
    },
    {
      "inputs": [
        {
          "internalType": "address",
          "name": "to",
          "type": "address"
        }
      ],
      "name": "mint",
      "outputs": [],
      "stateMutability": "nonpayable",
      "type": "function"
    },
    {
      "inputs": [],
      "name": "name",
      "outputs": [
        {
          "internalType": "string",
          "name": "",
          "type": "string"
        }
      ],
      "stateMutability": "view",
      "type": "function"
    },
    {
      "inputs": [],
      "name": "owner",
      "outputs": [
        {
          "internalType": "address",
          "name": "",
          "type": "address"
        }
      ],
      "stateMutability": "view",
      "type": "function"
    },
    {
      "inputs": [
        {
          "internalType": "uint256",
          "name": "tokenId",
          "type": "uint256"
        }
      ],
      "name": "ownerOf",
      "outputs": [
        {
          "internalType": "address",
          "name": "",
          "type": "address"
        }
      ],
      "stateMutability": "view",
      "type": "function"
    },
    {
      "inputs": [],
      "name": "renounceOwnership",
      "outputs": [],
      "stateMutability": "nonpayable",
      "type": "function"
    },
    {
      "inputs": [
        {
          "internalType": "address",
          "name": "from",
          "type": "address"
        },
        {
          "internalType": "address",
          "name": "to",
          "type": "address"
        },
        {
          "internalType": "uint256",
          "name": "tokenId",
          "type": "uint256"
        }
      ],
      "name": "safeTransferFrom",
      "outputs": [],
      "stateMutability": "nonpayable",
      "type": "function"
    },
    {
      "inputs": [
        {
          "internalType": "address",
          "name": "from",
          "type": "address"
        },
        {
          "internalType": "address",
          "name": "to",
          "type": "address"
        },
        {
          "internalType": "uint256",
          "name": "tokenId",
          "type": "uint256"
        },
        {
          "internalType": "bytes",
          "name": "data",
          "type": "bytes"
        }
      ],
      "name": "safeTransferFrom",
      "outputs": [],
      "stateMutability": "nonpayable",
      "type": "function"
    },
    {
      "inputs": [
        {
          "internalType": "address",
          "name": "operator",
          "type": "address"
        },
        {
          "internalType": "bool",
          "name": "approved",
          "type": "bool"
        }
      ],
      "name": "setApprovalForAll",
      "outputs": [],
      "stateMutability": "nonpayable",
      "type": "function"
    },
    {
      "inputs": [
        {
          "internalType": "bytes4",
          "name": "interfaceId",
          "type": "bytes4"
        }
      ],
      "name": "supportsInterface",
      "outputs": [
        {
          "internalType": "bool",
          "name": "",
          "type": "bool"
        }
      ],
      "stateMutability": "view",
      "type": "function"
    },
    {
      "inputs": [],
      "name": "symbol",
      "outputs": [
        {
          "internalType": "string",
          "name": "",
          "type": "string"
        }
      ],
      "stateMutability": "view",
      "type": "function"
    },
    {
      "inputs": [
        {
          "internalType": "uint256",
          "name": "tokenId",
          "type": "uint256"
        }
      ],
      "name": "tokenURI",
      "outputs": [
        {
          "internalType": "string",
          "name": "",
          "type": "string"
        }
      ],
      "stateMutability": "view",
      "type": "function"
    },
    {
      "inputs": [
        {
          "internalType": "address",
          "name": "from",
          "type": "address"
        },
        {
          "internalType": "address",
          "name": "to",
          "type": "address"
        },
        {
          "internalType": "uint256",
          "name": "tokenId",
          "type": "uint256"
        }
      ],
      "name": "transferFrom",
      "outputs": [],
      "stateMutability": "nonpayable",
      "type": "function"
    },
    {
      "inputs": [
        {
          "internalType": "address",
          "name": "newOwner",
          "type": "address"
        }
      ],
      "name": "transferOwnership",
      "outputs": [],
      "stateMutability": "nonpayable",
      "type": "function"
    }
  ],
  "bytecode": {
    "object": "0x60c06040523480156200001157600080fd5b506040518060400160405280601581526020017f436f73746152696361576f726b73686f703230323200000000000000000000008152506040518060400160405280600381526020016243525760e81b8152508160009081620000759190620001ba565b506001620000848282620001ba565b505050620000a16200009b620000bf60201b60201c565b620000c3565b4260a0819052620000b6906201518062000286565b608052620002ae565b3390565b600680546001600160a01b038381166001600160a01b0319831681179093556040519116919082907f8be0079c531659141344cd1fd0a4f28419497f9722a3daafe3b4186f6b6457e090600090a35050565b634e487b7160e01b600052604160045260246000fd5b600181811c908216806200014057607f821691505b6020821081036200016157634e487b7160e01b600052602260045260246000fd5b50919050565b601f821115620001b557600081815260208120601f850160051c81016020861015620001905750805b601f850160051c820191505b81811015620001b1578281556001016200019c565b5050505b505050565b81516001600160401b03811115620001d657620001d662000115565b620001ee81620001e784546200012b565b8462000167565b602080601f8311600181146200022657600084156200020d5750858301515b600019600386901b1c1916600185901b178555620001b1565b600085815260208120601f198616915b82811015620002575788860151825594840194600190910190840162000236565b5085821015620002765787850151600019600388901b60f8161c191681555b5050505050600190811b01905550565b80820180821115620002a857634e487b7160e01b600052601160045260246000fd5b92915050565b60805160a05161160a620002db600039600061026f0152600081816102bc01526105b1015261160a6000f3fe608060405234801561001057600080fd5b50600436106101215760003560e01c8063715018a6116100ad578063c87b56dd11610071578063c87b56dd14610257578063e60197be1461026a578063e985e9c514610291578063f2fde38b146102a4578063fab837bb146102b757600080fd5b8063715018a6146102105780638da5cb5b1461021857806395d89b4114610229578063a22cb46514610231578063b88d4fde1461024457600080fd5b806323b872dd116100f457806323b872dd146101a357806342842e0e146101b65780636352211e146101c95780636a627842146101dc57806370a08231146101ef57600080fd5b806301ffc9a71461012657806306fdde031461014e578063081812fc14610163578063095ea7b31461018e575b600080fd5b61013961013436600461115a565b6102de565b60405190151581526020015b60405180910390f35b610156610330565b60405161014591906111c7565b6101766101713660046111da565b6103c2565b6040516001600160a01b039091168152602001610145565b6101a161019c36600461120f565b6103e9565b005b6101a16101b1366004611239565b610503565b6101a16101c4366004611239565b610534565b6101766101d73660046111da565b61054f565b6101a16101ea366004611275565b6105af565b6102026101fd366004611275565b610619565b604051908152602001610145565b6101a161069f565b6006546001600160a01b0316610176565b6101566106b3565b6101a161023f366004611290565b6106c2565b6101a16102523660046112e2565b6106cd565b6101566102653660046111da565b610705565b6102027f000000000000000000000000000000000000000000000000000000000000000081565b61013961029f3660046113be565b610779565b6101a16102b2366004611275565b6107a7565b6102027f000000000000000000000000000000000000000000000000000000000000000081565b60006001600160e01b031982166380ac58cd60e01b148061030f57506001600160e01b03198216635b5e139f60e01b145b8061032a57506301ffc9a760e01b6001600160e01b03198316145b92915050565b60606000805461033f906113f1565b80601f016020809104026020016040519081016040528092919081815260200182805461036b906113f1565b80156103b85780601f1061038d576101008083540402835291602001916103b8565b820191906000526020600020905b81548152906001019060200180831161039b57829003601f168201915b5050505050905090565b60006103cd82610820565b506000908152600460205260409020546001600160a01b031690565b60006103f48261054f565b9050806001600160a01b0316836001600160a01b0316036104665760405162461bcd60e51b815260206004820152602160248201527f4552433732313a20617070726f76616c20746f2063757272656e74206f776e656044820152603960f91b60648201526084015b60405180910390fd5b336001600160a01b038216148061048257506104828133610779565b6104f45760405162461bcd60e51b815260206004820152603d60248201527f4552433732313a20617070726f76652063616c6c6572206973206e6f7420746f60448201527f6b656e206f776e6572206f7220617070726f76656420666f7220616c6c000000606482015260840161045d565b6104fe838361087f565b505050565b61050d33826108ed565b6105295760405162461bcd60e51b815260040161045d9061142b565b6104fe83838361094c565b6104fe838383604051806020016040528060008152506106cd565b6000818152600260205260408120546001600160a01b03168061032a5760405162461bcd60e51b8152602060048201526018602482015277115490cdcc8c4e881a5b9d985b1a59081d1bdad95b88125160421b604482015260640161045d565b7f00000000000000000000000000000000000000000000000000000000000000004211156105f057604051631059430f60e01b815260040160405180910390fd5b60006105fb60075490565b905061060b600780546001019055565b6106158282610abd565b5050565b60006001600160a01b0382166106835760405162461bcd60e51b815260206004820152602960248201527f4552433732313a2061646472657373207a65726f206973206e6f7420612076616044820152683634b21037bbb732b960b91b606482015260840161045d565b506001600160a01b031660009081526003602052604090205490565b6106a7610ad7565b6106b16000610b31565b565b60606001805461033f906113f1565b610615338383610b83565b6106d733836108ed565b6106f35760405162461bcd60e51b815260040161045d9061142b565b6106ff84848484610c51565b50505050565b606061071082610820565b600061072760408051602081019091526000815290565b905060008151116107475760405180602001604052806000815250610772565b8061075184610c84565b604051602001610762929190611478565b6040516020818303038152906040525b9392505050565b6001600160a01b03918216600090815260056020908152604080832093909416825291909152205460ff1690565b6107af610ad7565b6001600160a01b0381166108145760405162461bcd60e51b815260206004820152602660248201527f4f776e61626c653a206e6577206f776e657220697320746865207a65726f206160448201526564647265737360d01b606482015260840161045d565b61081d81610b31565b50565b6000818152600260205260409020546001600160a01b031661081d5760405162461bcd60e51b8152602060048201526018602482015277115490cdcc8c4e881a5b9d985b1a59081d1bdad95b88125160421b604482015260640161045d565b600081815260046020526040902080546001600160a01b0319166001600160a01b03841690811790915581906108b48261054f565b6001600160a01b03167f8c5be1e5ebec7d5bd14f71427d1e84f3dd0314c0f7b2291e5b200ac8c7c3b92560405160405180910390a45050565b6000806108f98361054f565b9050806001600160a01b0316846001600160a01b0316148061092057506109208185610779565b806109445750836001600160a01b0316610939846103c2565b6001600160a01b0316145b949350505050565b826001600160a01b031661095f8261054f565b6001600160a01b0316146109855760405162461bcd60e51b815260040161045d906114a7565b6001600160a01b0382166109e75760405162461bcd60e51b8152602060048201526024808201527f4552433732313a207472616e7366657220746f20746865207a65726f206164646044820152637265737360e01b606482015260840161045d565b6109f48383836001610d17565b826001600160a01b0316610a078261054f565b6001600160a01b031614610a2d5760405162461bcd60e51b815260040161045d906114a7565b600081815260046020908152604080832080546001600160a01b03199081169091556001600160a01b0387811680865260038552838620805460001901905590871680865283862080546001019055868652600290945282852080549092168417909155905184937fddf252ad1be2c89b69c2b068fc378daa952ba7f163c4a11628f55a4df523b3ef91a4505050565b610615828260405180602001604052806000815250610d9f565b6006546001600160a01b031633146106b15760405162461bcd60e51b815260206004820181905260248201527f4f776e61626c653a2063616c6c6572206973206e6f7420746865206f776e6572604482015260640161045d565b600680546001600160a01b038381166001600160a01b0319831681179093556040519116919082907f8be0079c531659141344cd1fd0a4f28419497f9722a3daafe3b4186f6b6457e090600090a35050565b816001600160a01b0316836001600160a01b031603610be45760405162461bcd60e51b815260206004820152601960248201527f4552433732313a20617070726f766520746f2063616c6c657200000000000000604482015260640161045d565b6001600160a01b03838116600081815260056020908152604080832094871680845294825291829020805460ff191686151590811790915591519182527f17307eab39ab6107e8899845ad3d59bd9653f200f220920489ca2b5937696c31910160405180910390a3505050565b610c5c84848461094c565b610c6884848484610dd2565b6106ff5760405162461bcd60e51b815260040161045d906114ec565b60606000610c9183610ed3565b600101905060008167ffffffffffffffff811115610cb157610cb16112cc565b6040519080825280601f01601f191660200182016040528015610cdb576020820181803683370190505b5090508181016020015b600019016f181899199a1a9b1b9c1cb0b131b232b360811b600a86061a8153600a8504945084610ce557509392505050565b60018111156106ff576001600160a01b03841615610d5d576001600160a01b03841660009081526003602052604081208054839290610d57908490611554565b90915550505b6001600160a01b038316156106ff576001600160a01b03831660009081526003602052604081208054839290610d94908490611567565b909155505050505050565b610da98383610fab565b610db66000848484610dd2565b6104fe5760405162461bcd60e51b815260040161045d906114ec565b60006001600160a01b0384163b15610ec857604051630a85bd0160e11b81526001600160a01b0385169063150b7a0290610e1690339089908890889060040161157a565b6020604051808303816000875af1925050508015610e51575060408051601f3d908101601f19168201909252610e4e918101906115b7565b60015b610eae573d808015610e7f576040519150601f19603f3d011682016040523d82523d6000602084013e610e84565b606091505b508051600003610ea65760405162461bcd60e51b815260040161045d906114ec565b805181602001fd5b6001600160e01b031916630a85bd0160e11b149050610944565b506001949350505050565b60008072184f03e93ff9f4daa797ed6e38ed64bf6a1f0160401b8310610f125772184f03e93ff9f4daa797ed6e38ed64bf6a1f0160401b830492506040015b6d04ee2d6d415b85acef81000000008310610f3e576d04ee2d6d415b85acef8100000000830492506020015b662386f26fc100008310610f5c57662386f26fc10000830492506010015b6305f5e1008310610f74576305f5e100830492506008015b6127108310610f8857612710830492506004015b60648310610f9a576064830492506002015b600a831061032a5760010192915050565b6001600160a01b0382166110015760405162461bcd60e51b815260206004820181905260248201527f4552433732313a206d696e7420746f20746865207a65726f2061646472657373604482015260640161045d565b6000818152600260205260409020546001600160a01b0316156110665760405162461bcd60e51b815260206004820152601c60248201527f4552433732313a20746f6b656e20616c7265616479206d696e74656400000000604482015260640161045d565b611074600083836001610d17565b6000818152600260205260409020546001600160a01b0316156110d95760405162461bcd60e51b815260206004820152601c60248201527f4552433732313a20746f6b656e20616c7265616479206d696e74656400000000604482015260640161045d565b6001600160a01b038216600081815260036020908152604080832080546001019055848352600290915280822080546001600160a01b0319168417905551839291907fddf252ad1be2c89b69c2b068fc378daa952ba7f163c4a11628f55a4df523b3ef908290a45050565b6001600160e01b03198116811461081d57600080fd5b60006020828403121561116c57600080fd5b813561077281611144565b60005b8381101561119257818101518382015260200161117a565b50506000910152565b600081518084526111b3816020860160208601611177565b601f01601f19169290920160200192915050565b602081526000610772602083018461119b565b6000602082840312156111ec57600080fd5b5035919050565b80356001600160a01b038116811461120a57600080fd5b919050565b6000806040838503121561122257600080fd5b61122b836111f3565b946020939093013593505050565b60008060006060848603121561124e57600080fd5b611257846111f3565b9250611265602085016111f3565b9150604084013590509250925092565b60006020828403121561128757600080fd5b610772826111f3565b600080604083850312156112a357600080fd5b6112ac836111f3565b9150602083013580151581146112c157600080fd5b809150509250929050565b634e487b7160e01b600052604160045260246000fd5b600080600080608085870312156112f857600080fd5b611301856111f3565b935061130f602086016111f3565b925060408501359150606085013567ffffffffffffffff8082111561133357600080fd5b818701915087601f83011261134757600080fd5b813581811115611359576113596112cc565b604051601f8201601f19908116603f01168101908382118183101715611381576113816112cc565b816040528281528a602084870101111561139a57600080fd5b82602086016020830137600060208483010152809550505050505092959194509250565b600080604083850312156113d157600080fd5b6113da836111f3565b91506113e8602084016111f3565b90509250929050565b600181811c9082168061140557607f821691505b60208210810361142557634e487b7160e01b600052602260045260246000fd5b50919050565b6020808252602d908201527f4552433732313a2063616c6c6572206973206e6f7420746f6b656e206f776e6560408201526c1c881bdc88185c1c1c9bdd9959609a1b606082015260800190565b6000835161148a818460208801611177565b83519083019061149e818360208801611177565b01949350505050565b60208082526025908201527f4552433732313a207472616e736665722066726f6d20696e636f72726563742060408201526437bbb732b960d91b606082015260800190565b60208082526032908201527f4552433732313a207472616e7366657220746f206e6f6e20455243373231526560408201527131b2b4bb32b91034b6b83632b6b2b73a32b960711b606082015260800190565b634e487b7160e01b600052601160045260246000fd5b8181038181111561032a5761032a61153e565b8082018082111561032a5761032a61153e565b6001600160a01b03858116825284166020820152604081018390526080606082018190526000906115ad9083018461119b565b9695505050505050565b6000602082840312156115c957600080fd5b81516107728161114456fea264697066735822122014b1259af54953f2873e9e88aa80d5201e349f6e88fae78665f5ba1bbec2a65464736f6c63430008100033",
    "linkReferences": {}
  },
  "methodIdentifiers": {
    "approve(address,uint256)": "095ea7b3",
    "balanceOf(address)": "70a08231",
    "eventEndsTS()": "fab837bb",
    "eventStartsTS()": "e60197be",
    "getApproved(uint256)": "081812fc",
    "isApprovedForAll(address,address)": "e985e9c5",
    "mint(address)": "6a627842",
    "name()": "06fdde03",
    "owner()": "8da5cb5b",
    "ownerOf(uint256)": "6352211e",
    "renounceOwnership()": "715018a6",
    "safeTransferFrom(address,address,uint256)": "42842e0e",
    "safeTransferFrom(address,address,uint256,bytes)": "b88d4fde",
    "setApprovalForAll(address,bool)": "a22cb465",
    "supportsInterface(bytes4)": "01ffc9a7",
    "symbol()": "95d89b41",
    "tokenURI(uint256)": "c87b56dd",
    "transferFrom(address,address,uint256)": "23b872dd",
    "transferOwnership(address)": "f2fde38b"
  },
  "id": 26
}